:020000040000FA
:100000000A128A11EE2F00308A000408840A82073F
:1000100000343134323433344134343435343634CA
:10002000423437343834393443342A343034233486
:02003000443456
:100B7400F030831603138600831603178901831646
:100B840003138113FF309500FF3083120313860093
:100B940008005434653463346C3461343A3420349A
:100BA40020342034203420342034203420342034A1
:100BB40020340034F5007508F40006300310F40DF9
:100BC400FF3E031DE02D730874077F39803E0A122F
:100BD4008A1163270A128A1108007E088A007F0896
:100BE40082000A128A11EF250A128A118000840AEF
:100BF40004087D0603190034FF0A0319FE0AF32DC5
:100C0400112EC730F200062EF20B052E092E0A2EE5
:100C14000130F0020030031CF103F102112E7008C0
:100C24007104031D162E172E032E182E0800FA0029
:100C34007608F8007808F9007608F8007808F300D8
:100C44007A080A128A11DC250A128A113B2E7708C7
:100C54008400831300080A128A1145260A128A1195
:100C64000130F8007808F7070130F8007808F90730
:100C74003B2E7708840083130008031D422E432E65
:100C8400292E442E0800F20083120313081572085B
:100C9400F00004300310F00CFF3E031D4C2E7008CE
:100CA400F10004300310F10DFF3E031D542E08081B
:100CB4000F397104880088110D30F000F00B602E9C
:100CC40083120313881508157208F000043003100A
:100CD400F00DFF3E031D692E08080F3970048800CB
:100CE40088110D30F000F00B752E83120313881554
:100CF400080024308400353083120313A000040854
:100D0400A1001130A2002008840083130008A3006E
:100D1400A00A2108840023088000A10AA20B852EC2
:100D24000A128A11B7260A128A110A128A11BA25DE
:100D34000A128A119D2E0A128A11F6260A128A11A3
:100D440083120313A0002008AB00F6012430A00096
:100D54002008F70000300A128A1119260A128A1193
:100D64009D2E9D2E0A128A1100286430F000003056
:100D7400F1000A128A1102260A128A118316031339
:100D84000811881108128812081388136430F000BF
:100D94000030F1000A128A1102260A128A11831203
:100DA4000313881528300A128A1163270A128A113C
:100DB4000C300A128A1163270A128A1101300A12AE
:100DC4008A1163270A128A1102300A128A116327D0
:100DD4000A128A116430F0000030F1000A128A11FC
:100DE40002260A128A110800F701F8010430780279
:100DF400031CFD2EFE2E002F602F602F0130F0000B
:100E0400780A062F0310F00DFF3E031D042F70080F
:100E1400FF3A831203138600F90104307902031C9C
:100E2400142F152F172F552F552F0609F000F101F8
:100E3400F109790AF2001030F3000030F400252F94
:100E44000310F30DF40DF20B222F70087305F50057
:100E540071087405F600750876040319322F332FD0
:100E64004A2F7808F00002300310F00DFF3E031DF6
:100E7400362F01307007F1007908710784000A12D7
:100E84008A1103200A128A11F2007208F7004A2F0D
:100E94000130F0007008F90704307902031C532F65
:100EA400542F172F552F0130F0007008F807043025
:100EB4007802031C5E2F5F2F002F602F7708622FAC
:100EC4000800F2008312031308117208F0000430C2
:100ED4000310F00CFF3E031D6A2F7008F10004306C
:100EE4000310F10DFF3E031D722F08080F39710422
:100EF4008800881172030319802F812F882F0230F4
:100F04007206031D862F872F922F882F0330F1003E
:100F14009730F000F00B8C2FF10B8C2F912F972F23
:100F24000D30F000F00B942F972F831203138815C4
:100F3400F0307205F00020307006031DA22FA32F9D
:100F4400C12F08117208F00004300310F00CFF3EAA
:100F5400031DA72F7008F10004300310F10DFF3EAC
:100F6400031DAF2F08080F397104880088110D3054
:100F7400F000F00BBB2F831203138815C12F081147
:100F84007208F00004300310F00DFF3E031DC52F5E
:100F940008080F3970048800881172030319D32FCD
:100FA400D42FDB2F02307206031DD92FDA2FE52F41
:100FB400DB2F0330F1009730F000F00BDF2FF10B43
:100FC400DF2FE42FEA2F0D30F000F00BE72FEA2F8C
:100FD400831203138815080083134630FD0005307F
:100FE400FE00CB30FF00353084000A128A11F3254D
:0C0FF4000A128A1183010A128A117B2E56
:04400E00D4E0FFFFFC
:00000001FF
